:020000040800F2
:1000000000100020150100080000000000000000A2
:10001000D1010008D1010008D10100080000000052
:10002000000000000000000000000000D1010008F6
:10003000D101000800000000D1010008D101000832
:10004000D1010008D1010008D1010008D101000848
:10005000D1010008D1010008D1010008D101000838
:10006000D1010008D1010008D1010008D101000828
:10007000D1010008D1010008D1010008D101000818
:10008000D1010008D1010008D1010008D101000808
:10009000D1010008D1010008D1010008D1010008F8
:1000A000D1010008D1010008D1010008D1010008E8
:1000B000D1010008D1010008D1010008D1010008D8
:1000C000D1010008D1010008D1010008D1010008C8
:1000D000D1010008D1010008D1010008D1010008B8
:1000E000D1010008D1010008D10100080000000082
:1000F0000000000000000000000000000000000000
:1001000000000000000000005FF808F180B400AFBC
:10011000FEE700BF684620F007018D4681B583B039
:1001200000AF00237B6002E07B6801337B607B686B
:10013000074A9342F8D9074B9847074B9847074B14
:100140004FF000601946064B9847064B9847FEE76C
:100150001FA1070069010008D90100080000000084
:10016000410300080D01000880B483B000AF134BB9
:100170007B60134B3B607A683B689A420CD007E087
:100180003B681A1D3A607A68111D796012681A601E
:100190003B680C4A9342F3D30B4B3B6004E03B6853
:1001A0001A1D3A6000221A603B68084A9342F6D34F
:1001B0000C37BD465DF8047B704700BF7003000834
:1001C00000000020000000200000002000000020AF
:1001D00080B400AFFEE700BF80B500AF134A134BF9
:1001E0001B6843F0010313601049104B5A68104B11
:1001F00013404B600D4A0D4B1B6823F0847323F4AE
:1002000080331360094A094B1B6823F48023136071
:10021000064A064B5B6823F4FE035360034B4FF41E
:100220001F029A60034B984780BD00BF0010024038
:100230000000FFF83902000880B500AF014B984775
:1002400080BD00BF4902000880B483B000AF002326
:100250007B6000233B60384A374B1B6843F4803394
:100260001360354B1B6803F400333B607B6801333C
:100270007B603B68002B03D17B68B3F5A06FF0D1A6
:100280002D4B1B6803F40033002B02D001233B608D
:1002900001E000233B603B68012B47D1274A274BF5
:1002A0001B6843F010031360244A244B1B6823F09F
:1002B00003031360214A214B1B6813601E4A1E4B27
:1002C0005B6853601C4A1C4B5B6853601A4A1A4BAC
:1002D0005B685360184A184B5B6823F47C135360C7
:1002E000154A154B5B6843F498135360124A124B3E
:1002F0001B6843F08073136000BF0F4B1B6803F053
:100300000073002BF9D00C4A0B4B5B6823F00303FE
:100310005360094A084B5B6843F00203536000BF17
:10032000054B5B6803F00C03082BF9D10C37BD4675
:100330005DF8047B704700BF0010024000200240BF
:1003400080B483B000AF7860396007493B6823F020
:10035000604323F07F037A6813438B600C37BD46FC
:0C0360005DF8047B704700BF00ED00E07A
:0400000508000115D9
:00000001FF
